{
  "_format": "hh-sol-artifact-1",
  "contractName": "TokenUpgradeableV2",
  "sourceName": "contracts/TokenUpgradeableV2.sol",
  "abi": [
    {
      "inputs": [],
      "name": "AccessControlBadConfirmation",
      "type": "error"
    },
    {
      "inputs": [
        {
          "internalType": "address",
          "name": "account",
          "type": "address"
        },
        {
          "internalType": "bytes32",
          "name": "neededRole",
          "type": "bytes32"
        }
      ],
      "name": "AccessControlUnauthorizedAccount",
      "type": "error"
    },
    {
      "inputs": [
        {
          "internalType": "address",
          "name": "target",
          "type": "address"
        }
      ],
      "name": "AddressEmptyCode",
      "type": "error"
    },
    {
      "inputs": [
        {
          "internalType": "address",
          "name": "implementation",
          "type": "address"
        }
      ],
      "name": "ERC1967InvalidImplementation",
      "type": "error"
    },
    {
      "inputs": [],
      "name": "ERC1967NonPayable",
      "type": "error"
    },
    {
      "inputs": [
        {
          "internalType": "address",
          "name": "spender",
          "type": "address"
        },
        {
          "internalType": "uint256",
          "name": "allowance",
          "type": "uint256"
        },
        {
          "internalType": "uint256",
          "name": "needed",
          "type": "uint256"
        }
      ],
      "name": "ERC20InsufficientAllowance",
      "type": "error"
    },
    {
      "inputs": [
        {
          "internalType": "address",
          "name": "sender",
          "type": "address"
        },
        {
          "internalType": "uint256",
          "name": "balance",
          "type": "uint256"
        },
        {
          "internalType": "uint256",
          "name": "needed",
          "type": "uint256"
        }
      ],
      "name": "ERC20InsufficientBalance",
      "type": "error"
    },
    {
      "inputs": [
        {
          "internalType": "address",
          "name": "approver",
          "type": "address"
        }
      ],
      "name": "ERC20InvalidApprover",
      "type": "error"
    },
    {
      "inputs": [
        {
          "internalType": "address",
          "name": "receiver",
          "type": "address"
        }
      ],
      "name": "ERC20InvalidReceiver",
      "type": "error"
    },
    {
      "inputs": [
        {
          "internalType": "address",
          "name": "sender",
          "type": "address"
        }
      ],
      "name": "ERC20InvalidSender",
      "type": "error"
    },
    {
      "inputs": [
        {
          "internalType": "address",
          "name": "spender",
          "type": "address"
        }
      ],
      "name": "ERC20InvalidSpender",
      "type": "error"
    },
    {
      "inputs": [],
      "name": "FailedCall",
      "type": "error"
    },
    {
      "inputs": [],
      "name": "InvalidInitialization",
      "type": "error"
    },
    {
      "inputs": [],
      "name": "NotInitializing",
      "type": "error"
    },
    {
      "inputs": [],
      "name": "UUPSUnauthorizedCallContext",
      "type": "error"
    },
    {
      "inputs": [
        {
          "internalType": "bytes32",
          "name": "slot",
          "type": "bytes32"
        }
      ],
      "name": "UUPSUnsupportedProxiableUUID",
      "type": "error"
    },
    {
      "anonymous": false,
      "inputs": [
        {
          "indexed": false,
          "internalType": "address",
          "name": "adminSet",
          "type": "address"
        }
      ],
      "name": "AdminSet",
      "type": "event"
    },
    {
      "anonymous": false,
      "inputs": [
        {
          "indexed": true,
          "internalType": "address",
          "name": "owner",
          "type": "address"
        },
        {
          "indexed": true,
          "internalType": "address",
          "name": "spender",
          "type": "address"
        },
        {
          "indexed": false,
          "internalType": "uint256",
          "name": "value",
          "type": "uint256"
        }
      ],
      "name": "Approval",
      "type": "event"
    },
    {
      "anonymous": false,
      "inputs": [
        {
          "indexed": false,
          "internalType": "uint64",
          "name": "version",
          "type": "uint64"
        }
      ],
      "name": "Initialized",
      "type": "event"
    },
    {
      "anonymous": false,
      "inputs": [
        {
          "indexed": true,
          "internalType": "address",
          "name": "user",
          "type": "address"
        },
        {
          "indexed": false,
          "internalType": "uint256",
          "name": "amount",
          "type": "uint256"
        }
      ],
      "name": "Redeemed",
      "type": "event"
    },
    {
      "anonymous": false,
      "inputs": [
        {
          "indexed": true,
          "internalType": "bytes32",
          "name": "role",
          "type": "bytes32"
        },
        {
          "indexed": true,
          "internalType": "bytes32",
          "name": "previousAdminRole",
          "type": "bytes32"
        },
        {
          "indexed": true,
          "internalType": "bytes32",
          "name": "newAdminRole",
          "type": "bytes32"
        }
      ],
      "name": "RoleAdminChanged",
      "type": "event"
    },
    {
      "anonymous": false,
      "inputs": [
        {
          "indexed": true,
          "internalType": "bytes32",
          "name": "role",
          "type": "bytes32"
        },
        {
          "indexed": true,
          "internalType": "address",
          "name": "account",
          "type": "address"
        },
        {
          "indexed": true,
          "internalType": "address",
          "name": "sender",
          "type": "address"
        }
      ],
      "name": "RoleGranted",
      "type": "event"
    },
    {
      "anonymous": false,
      "inputs": [
        {
          "indexed": true,
          "internalType": "bytes32",
          "name": "role",
          "type": "bytes32"
        },
        {
          "indexed": true,
          "internalType": "address",
          "name": "account",
          "type": "address"
        },
        {
          "indexed": true,
          "internalType": "address",
          "name": "sender",
          "type": "address"
        }
      ],
      "name": "RoleRevoked",
      "type": "event"
    },
    {
      "anonymous": false,
      "inputs": [
        {
          "indexed": true,
          "internalType": "address",
          "name": "from",
          "type": "address"
        },
        {
          "indexed": true,
          "internalType": "address",
          "name": "to",
          "type": "address"
        },
        {
          "indexed": false,
          "internalType": "uint256",
          "name": "value",
          "type": "uint256"
        }
      ],
      "name": "Transfer",
      "type": "event"
    },
    {
      "anonymous": false,
      "inputs": [
        {
          "indexed": true,
          "internalType": "address",
          "name": "implementation",
          "type": "address"
        }
      ],
      "name": "Upgraded",
      "type": "event"
    },
    {
      "inputs": [],
      "name": "DEFAULT_ADMIN_ROLE",
      "outputs": [
        {
          "internalType": "bytes32",
          "name": "",
          "type": "bytes32"
        }
      ],
      "stateMutability": "view",
      "type": "function"
    },
    {
      "inputs": [],
      "name": "MINTER_ROLE",
      "outputs": [
        {
          "internalType": "bytes32",
          "name": "",
          "type": "bytes32"
        }
      ],
      "stateMutability": "view",
      "type": "function"
    },
    {
      "inputs": [],
      "name": "UPGRADE_INTERFACE_VERSION",
      "outputs": [
        {
          "internalType": "string",
          "name": "",
          "type": "string"
        }
      ],
      "stateMutability": "view",
      "type": "function"
    },
    {
      "inputs": [],
      "name": "admin",
      "outputs": [
        {
          "internalType": "address",
          "name": "",
          "type": "address"
        }
      ],
      "stateMutability": "view",
      "type": "function"
    },
    {
      "inputs": [
        {
          "internalType": "address",
          "name": "owner",
          "type": "address"
        },
        {
          "internalType": "address",
          "name": "spender",
          "type": "address"
        }
      ],
      "name": "allowance",
      "outputs": [
        {
          "internalType": "uint256",
          "name": "",
          "type": "uint256"
        }
      ],
      "stateMutability": "view",
      "type": "function"
    },
    {
      "inputs": [
        {
          "internalType": "address",
          "name": "spender",
          "type": "address"
        },
        {
          "internalType": "uint256",
          "name": "value",
          "type": "uint256"
        }
      ],
      "name": "approve",
      "outputs": [
        {
          "internalType": "bool",
          "name": "",
          "type": "bool"
        }
      ],
      "stateMutability": "nonpayable",
      "type": "function"
    },
    {
      "inputs": [
        {
          "internalType": "address",
          "name": "account",
          "type": "address"
        }
      ],
      "name": "balanceOf",
      "outputs": [
        {
          "internalType": "uint256",
          "name": "",
          "type": "uint256"
        }
      ],
      "stateMutability": "view",
      "type": "function"
    },
    {
      "inputs": [
        {
          "internalType": "uint256",
          "name": "amount",
          "type": "uint256"
        }
      ],
      "name": "burn",
      "outputs": [],
      "stateMutability": "nonpayable",
      "type": "function"
    },
    {
      "inputs": [],
      "name": "decimals",
      "outputs": [
        {
          "internalType": "uint8",
          "name": "",
          "type": "uint8"
        }
      ],
      "stateMutability": "view",
      "type": "function"
    },
    {
      "inputs": [
        {
          "internalType": "bytes32",
          "name": "role",
          "type": "bytes32"
        }
      ],
      "name": "getRoleAdmin",
      "outputs": [
        {
          "internalType": "bytes32",
          "name": "",
          "type": "bytes32"
        }
      ],
      "stateMutability": "view",
      "type": "function"
    },
    {
      "inputs": [
        {
          "internalType": "bytes32",
          "name": "role",
          "type": "bytes32"
        },
        {
          "internalType": "address",
          "name": "account",
          "type": "address"
        }
      ],
      "name": "grantRole",
      "outputs": [],
      "stateMutability": "nonpayable",
      "type": "function"
    },
    {
      "inputs": [
        {
          "internalType": "bytes32",
          "name": "role",
          "type": "bytes32"
        },
        {
          "internalType": "address",
          "name": "account",
          "type": "address"
        }
      ],
      "name": "hasRole",
      "outputs": [
        {
          "internalType": "bool",
          "name": "",
          "type": "bool"
        }
      ],
      "stateMutability": "view",
      "type": "function"
    },
    {
      "inputs": [
        {
          "internalType": "string",
          "name": "name",
          "type": "string"
        },
        {
          "internalType": "string",
          "name": "symbol",
          "type": "string"
        },
        {
          "internalType": "address",
          "name": "_admin",
          "type": "address"
        }
      ],
      "name": "initialize",
      "outputs": [],
      "stateMutability": "nonpayable",
      "type": "function"
    },
    {
      "inputs": [
        {
          "internalType": "address",
          "name": "to",
          "type": "address"
        },
        {
          "internalType": "uint256",
          "name": "amount",
          "type": "uint256"
        }
      ],
      "name": "mint",
      "outputs": [],
      "stateMutability": "nonpayable",
      "type": "function"
    },
    {
      "inputs": [],
      "name": "name",
      "outputs": [
        {
          "internalType": "string",
          "name": "",
          "type": "string"
        }
      ],
      "stateMutability": "view",
      "type": "function"
    },
    {
      "inputs": [],
      "name": "proxiableUUID",
      "outputs": [
        {
          "internalType": "bytes32",
          "name": "",
          "type": "bytes32"
        }
      ],
      "stateMutability": "view",
      "type": "function"
    },
    {
      "inputs": [
        {
          "internalType": "uint256",
          "name": "amount",
          "type": "uint256"
        }
      ],
      "name": "redeem",
      "outputs": [],
      "stateMutability": "nonpayable",
      "type": "function"
    },
    {
      "inputs": [],
      "name": "redeemCounter",
      "outputs": [
        {
          "internalType": "uint256",
          "name": "",
          "type": "uint256"
        }
      ],
      "stateMutability": "view",
      "type": "function"
    },
    {
      "inputs": [
        {
          "internalType": "bytes32",
          "name": "role",
          "type": "bytes32"
        },
        {
          "internalType": "address",
          "name": "callerConfirmation",
          "type": "address"
        }
      ],
      "name": "renounceRole",
      "outputs": [],
      "stateMutability": "nonpayable",
      "type": "function"
    },
    {
      "inputs": [
        {
          "internalType": "bytes32",
          "name": "role",
          "type": "bytes32"
        },
        {
          "internalType": "address",
          "name": "account",
          "type": "address"
        }
      ],
      "name": "revokeRole",
      "outputs": [],
      "stateMutability": "nonpayable",
      "type": "function"
    },
    {
      "inputs": [
        {
          "internalType": "bytes4",
          "name": "interfaceId",
          "type": "bytes4"
        }
      ],
      "name": "supportsInterface",
      "outputs": [
        {
          "internalType": "bool",
          "name": "",
          "type": "bool"
        }
      ],
      "stateMutability": "view",
      "type": "function"
    },
    {
      "inputs": [],
      "name": "symbol",
      "outputs": [
        {
          "internalType": "string",
          "name": "",
          "type": "string"
        }
      ],
      "stateMutability": "view",
      "type": "function"
    },
    {
      "inputs": [],
      "name": "totalSupply",
      "outputs": [
        {
          "internalType": "uint256",
          "name": "",
          "type": "uint256"
        }
      ],
      "stateMutability": "view",
      "type": "function"
    },
    {
      "inputs": [
        {
          "internalType": "address",
          "name": "to",
          "type": "address"
        },
        {
          "internalType": "uint256",
          "name": "value",
          "type": "uint256"
        }
      ],
      "name": "transfer",
      "outputs": [
        {
          "internalType": "bool",
          "name": "",
          "type": "bool"
        }
      ],
      "stateMutability": "nonpayable",
      "type": "function"
    },
    {
      "inputs": [
        {
          "internalType": "address",
          "name": "from",
          "type": "address"
        },
        {
          "internalType": "address",
          "name": "to",
          "type": "address"
        },
        {
          "internalType": "uint256",
          "name": "value",
          "type": "uint256"
        }
      ],
      "name": "transferFrom",
      "outputs": [
        {
          "internalType": "bool",
          "name": "",
          "type": "bool"
        }
      ],
      "stateMutability": "nonpayable",
      "type": "function"
    },
    {
      "inputs": [
        {
          "internalType": "address",
          "name": "newImplementation",
          "type": "address"
        },
        {
          "internalType": "bytes",
          "name": "data",
          "type": "bytes"
        }
      ],
      "name": "upgradeToAndCall",
      "outputs": [],
      "stateMutability": "payable",
      "type": "function"
    },
    {
      "inputs": [],
      "name": "version",
      "outputs": [
        {
          "internalType": "string",
          "name": "",
          "type": "string"
        }
      ],
      "stateMutability": "pure",
      "type": "function"
    }
  ],
  "bytecode": "0x60a06040523073ffffffffffffffffffffffffffffffffffffffff1660809073ffffffffffffffffffffffffffffffffffffffff16815250348015604257600080fd5b5060805161305d61006c600039600081816116eb015281816117400152611901015261305d6000f3fe60806040526004361061019c5760003560e01c806352d1902d116100ec578063a9059cbb1161008a578063d547741f11610064578063d547741f146105e3578063db006a751461060c578063dd62ed3e14610635578063f851a440146106725761019c565b8063a9059cbb14610550578063ad3cb1cc1461058d578063d5391393146105b85761019c565b806391d14854116100c657806391d148541461049257806395d89b41146104cf578063a217fddf146104fa578063a7ce4565146105255761019c565b806352d1902d146103ff57806354fd4d501461042a57806370a08231146104555761019c565b8063248a9ca31161015957806336568abe1161013357806336568abe1461036857806340c10f191461039157806342966c68146103ba5780634f1ef286146103e35761019c565b8063248a9ca3146102d75780632f2ff15d14610314578063313ce5671461033d5761019c565b806301ffc9a7146101a157806306fdde03146101de578063077f224a14610209578063095ea7b31461023257806318160ddd1461026f57806323b872dd1461029a575b600080fd5b3480156101ad57600080fd5b506101c860048036038101906101c39190612265565b61069d565b6040516101d591906122ad565b60405180910390f35b3480156101ea57600080fd5b506101f3610717565b6040516102009190612358565b60405180910390f35b34801561021557600080fd5b50610230600480360381019061022b919061250d565b6107b8565b005b34801561023e57600080fd5b50610259600480360381019061025491906125ce565b610b63565b60405161026691906122ad565b60405180910390f35b34801561027b57600080fd5b50610284610b86565b604051610291919061261d565b60405180910390f35b3480156102a657600080fd5b506102c160048036038101906102bc9190612638565b610b9e565b6040516102ce91906122ad565b60405180910390f35b3480156102e357600080fd5b506102fe60048036038101906102f991906126c1565b610bcd565b60405161030b91906126fd565b60405180910390f35b34801561032057600080fd5b5061033b60048036038101906103369190612718565b610bfb565b005b34801561034957600080fd5b50610352610c1d565b60405161035f9190612774565b60405180910390f35b34801561037457600080fd5b5061038f600480360381019061038a9190612718565b610c26565b005b34801561039d57600080fd5b506103b860048036038101906103b391906125ce565b610ca1565b005b3480156103c657600080fd5b506103e160048036038101906103dc919061278f565b610cda565b005b6103fd60048036038101906103f8919061285d565b610ce7565b005b34801561040b57600080fd5b50610414610d06565b60405161042191906126fd565b60405180910390f35b34801561043657600080fd5b5061043f610d39565b60405161044c9190612358565b60405180910390f35b34801561046157600080fd5b5061047c600480360381019061047791906128b9565b610d76565b604051610489919061261d565b60405180910390f35b34801561049e57600080fd5b506104b960048036038101906104b49190612718565b610dcd565b6040516104c691906122ad565b60405180910390f35b3480156104db57600080fd5b506104e4610e46565b6040516104f19190612358565b60405180910390f35b34801561050657600080fd5b5061050f610ee7565b60405161051c91906126fd565b60405180910390f35b34801561053157600080fd5b5061053a610eee565b604051610547919061261d565b60405180910390f35b34801561055c57600080fd5b50610577600480360381019061057291906125ce565b610ef4565b60405161058491906122ad565b60405180910390f35b34801561059957600080fd5b506105a2610f17565b6040516105af9190612358565b60405180910390f35b3480156105c457600080fd5b506105cd610f50565b6040516105da91906126fd565b60405180910390f35b3480156105ef57600080fd5b5061060a60048036038101906106059190612718565b610f74565b005b34801561061857600080fd5b50610633600480360381019061062e919061278f565b610f96565b005b34801561064157600080fd5b5061065c600480360381019061065791906128e6565b611078565b604051610669919061261d565b60405180910390f35b34801561067e57600080fd5b5061068761110d565b6040516106949190612935565b60405180910390f35b60007f7965db0b000000000000000000000000000000000000000000000000000000007bffffffffffffffffffffffffffffffffffffffffffffffffffffffff1916827bffffffffffffffffffffffffffffffffffffffffffffffffffffffff19161480610710575061070f82611133565b5b9050919050565b6060600061072361119d565b90508060030180546107349061297f565b80601f01602080910402602001604051908101604052809291908181526020018280546107609061297f565b80156107ad5780601f10610782576101008083540402835291602001916107ad565b820191906000526020600020905b81548152906001019060200180831161079057829003601f168201915b505050505091505090565b60006107c26111c5565b905060008160000160089054906101000a900460ff1615905060008260000160009054906101000a900467ffffffffffffffff1690506000808267ffffffffffffffff161480156108105750825b9050600060018367ffffffffffffffff16148015610845575060003073ffffffffffffffffffffffffffffffffffffffff163b145b905081158015610853575080155b1561088a576040517ff92ee8a900000000000000000000000000000000000000000000000000000000815260040160405180910390fd5b60018560000160006101000a81548167ffffffffffffffff021916908367ffffffffffffffff16021790555083156108da5760018560000160086101000a81548160ff0219169083151502179055505b6108e488886111d9565b6108ec6111ef565b6108f46111f9565b85600160006101000a81548173ffffffffffffffffffffffffffffffffffffffff021916908373ffffffffffffffffffffffffffffffffffffffff1602179055506109646000801b600160009054906101000a900473ffffffffffffffffffffffffffffffffffffffff16611203565b506109b17f9f2df0fed2c77648de5860a4cc508cd0818c85b8b8a1ab4ceeef8d981c8956a6600160009054906101000a900473ffffffffffffffffffffffffffffffffffffffff16611203565b506109fd600160009054906101000a900473ffffffffffffffffffffffffffffffffffffffff166109e0610c1d565b600a6109ec9190612b12565b60646109f89190612b5d565b611304565b600160009054906101000a900473ffffffffffffffffffffffffffffffffffffffff1673ffffffffffffffffffffffffffffffffffffffff16600073ffffffffffffffffffffffffffffffffffffffff167fddf252ad1be2c89b69c2b068fc378daa952ba7f163c4a11628f55a4df523b3ef610a77610c1d565b600a610a839190612b12565b6064610a8f9190612b5d565b604051610a9c919061261d565b60405180910390a37f8fe72c3e0020beb3234e76ae6676fa576fbfcae600af1c4fea44784cf0db329c600160009054906101000a900473ffffffffffffffffffffffffffffffffffffffff16604051610af59190612935565b60405180910390a18315610b595760008560000160086101000a81548160ff0219169083151502179055507fc7f505b2f371ae2175ee4913f4499e1f2633a7b5936321eed1cdaeb6115181d26001604051610b509190612bf8565b60405180910390a15b5050505050505050565b600080610b6e611386565b9050610b7b81858561138e565b600191505092915050565b600080610b9161119d565b9050806002015491505090565b600080610ba9611386565b9050610bb68582856113a0565b610bc1858585611435565b60019150509392505050565b600080610bd8611529565b905080600001600084815260200190815260200160002060010154915050919050565b610c0482610bcd565b610c0d81611551565b610c178383611203565b50505050565b60006012905090565b610c2e611386565b73ffffffffffffffffffffffffffffffffffffffff168173ffffffffffffffffffffffffffffffffffffffff1614610c92576040517f6697b23200000000000000000000000000000000000000000000000000000000815260040160405180910390fd5b610c9c8282611565565b505050565b7f9f2df0fed2c77648de5860a4cc508cd0818c85b8b8a1ab4ceeef8d981c8956a6610ccb81611551565b610cd58383611304565b505050565b610ce43382611667565b50565b610cef6116e9565b610cf8826117cf565b610d0282826117e0565b5050565b6000610d106118ff565b7f360894a13ba1a3210667c828492db98dca3e2076cc3735a920a3ca505d382bbc60001b905090565b60606040518060400160405280600381526020017f7632210000000000000000000000000000000000000000000000000000000000815250905090565b600080610d8161119d565b90508060000160008473ffffffffffffffffffffffffffffffffffffffff1673ffffffffffffffffffffffffffffffffffffffff16815260200190815260200160002054915050919050565b600080610dd8611529565b905080600001600085815260200190815260200160002060000160008473ffffffffffffffffffffffffffffffffffffffff1673ffffffffffffffffffffffffffffffffffffffff16815260200190815260200160002060009054906101000a900460ff1691505092915050565b60606000610e5261119d565b9050806004018054610e639061297f565b80601f0160208091040260200160405190810160405280929190818152602001828054610e8f9061297f565b8015610edc5780601f10610eb157610100808354040283529160200191610edc565b820191906000526020600020905b815481529060010190602001808311610ebf57829003601f168201915b505050505091505090565b6000801b81565b60005481565b600080610eff611386565b9050610f0c818585611435565b600191505092915050565b6040518060400160405280600581526020017f352e302e3000000000000000000000000000000000000000000000000000000081525081565b7f9f2df0fed2c77648de5860a4cc508cd0818c85b8b8a1ab4ceeef8d981c8956a681565b610f7d82610bcd565b610f8681611551565b610f908383611565565b50505050565b80610fa033610d76565b1015610fe1576040517f08c379a0000000000000000000000000000000000000000000000000000000008152600401610fd890612c5f565b60405180910390fd5b61100e33600160009054906101000a900473ffffffffffffffffffffffffffffffffffffffff1683611435565b60016000808282546110209190612c7f565b925050819055503373ffffffffffffffffffffffffffffffffffffffff167f4896181ff8f4543cc00db9fe9b6fb7e6f032b7eb772c72ab1ec1b4d2e03b93698260405161106d919061261d565b60405180910390a250565b60008061108361119d565b90508060010160008573ffffffffffffffffffffffffffffffffffffffff1673ffffffffffffffffffffffffffffffffffffffff16815260200190815260200160002060008473ffffffffffffffffffffffffffffffffffffffff1673ffffffffffffffffffffffffffffffffffffffff1681526020019081526020016000205491505092915050565b600160009054906101000a900473ffffffffffffffffffffffffffffffffffffffff1681565b60007f01ffc9a7000000000000000000000000000000000000000000000000000000007bffffffffffffffffffffffffffffffffffffffffffffffffffffffff1916827bffffffffffffffffffffffffffffffffffffffffffffffffffffffff1916149050919050565b60007f52c63247e1f47db19d5ce0460030c497f067ca4cebf71ba98eeadabe20bace00905090565b6000806111d0611986565b90508091505090565b6111e16119b1565b6111eb82826119f1565b5050565b6111f76119b1565b565b6112016119b1565b565b60008061120e611529565b905061121a8484610dcd565b6112f857600181600001600086815260200190815260200160002060000160008573ffffffffffffffffffffffffffffffffffffffff1673ffffffffffffffffffffffffffffffffffffffff16815260200190815260200160002060006101000a81548160ff021916908315150217905550611294611386565b73ffffffffffffffffffffffffffffffffffffffff168373ffffffffffffffffffffffffffffffffffffffff16857f2f8788117e7eff1d82e926ec794901d17c78024a50270940304540a733656f0d60405160405180910390a460019150506112fe565b60009150505b92915050565b600073ffffffffffffffffffffffffffffffffffffffff168273ffffffffffffffffffffffffffffffffffffffff16036113765760006040517fec442f0500000000000000000000000000000000000000000000000000000000815260040161136d9190612935565b60405180910390fd5b61138260008383611a2e565b5050565b600033905090565b61139b8383836001611c6d565b505050565b60006113ac8484611078565b90507fffffffffffffffffffffffffffffffffffffffffffffffffffffffffffffffff81101561142f578181101561141f578281836040517ffb8f41b200000000000000000000000000000000000000000000000000000000815260040161141693929190612cb3565b60405180910390fd5b61142e84848484036000611c6d565b5b50505050565b600073ffffffffffffffffffffffffffffffffffffffff168373ffffffffffffffffffffffffffffffffffffffff16036114a75760006040517f96c6fd1e00000000000000000000000000000000000000000000000000000000815260040161149e9190612935565b60405180910390fd5b600073ffffffffffffffffffffffffffffffffffffffff168273ffffffffffffffffffffffffffffffffffffffff16036115195760006040517fec442f050000000000000000000000000000000000000000000000000000000081526004016115109190612935565b60405180910390fd5b611524838383611a2e565b505050565b60007f02dd7bc7dec4dceedda775e58dd541e08a116c6c53815c0bd028192f7b626800905090565b6115628161155d611386565b611e53565b50565b600080611570611529565b905061157c8484610dcd565b1561165b57600081600001600086815260200190815260200160002060000160008573ffffffffffffffffffffffffffffffffffffffff1673ffffffffffffffffffffffffffffffffffffffff16815260200190815260200160002060006101000a81548160ff0219169083151502179055506115f7611386565b73ffffffffffffffffffffffffffffffffffffffff168373ffffffffffffffffffffffffffffffffffffffff16857ff6391f5c32d9c69d2a47ea670b442974b53935d1edc7fd64eb21e047a839171b60405160405180910390a46001915050611661565b60009150505b92915050565b600073ffffffffffffffffffffffffffffffffffffffff168273ffffffffffffffffffffffffffffffffffffffff16036116d95760006040517f96c6fd1e0000000000000000000000000000000000000000000000000000000081526004016116d09190612935565b60405180910390fd5b6116e582600083611a2e565b5050565b7f000000000000000000000000000000000000000000000000000000000000000073ffffffffffffffffffffffffffffffffffffffff163073ffffffffffffffffffffffffffffffffffffffff16148061179657507f000000000000000000000000000000000000000000000000000000000000000073ffffffffffffffffffffffffffffffffffffffff1661177d611ea4565b73ffffffffffffffffffffffffffffffffffffffff1614155b156117cd576040517fe07c8dba00000000000000000000000000000000000000000000000000000000815260040160405180910390fd5b565b6000801b6117dc81611551565b5050565b8173ffffffffffffffffffffffffffffffffffffffff166352d1902d6040518163ffffffff1660e01b8152600401602060405180830381865afa92505050801561184857506040513d601f19601f820116820180604052508101906118459190612cff565b60015b61188957816040517f4c9c8ce30000000000000000000000000000000000000000000000000000000081526004016118809190612935565b60405180910390fd5b7f360894a13ba1a3210667c828492db98dca3e2076cc3735a920a3ca505d382bbc60001b81146118f057806040517faa1d49a40000000000000000000000000000000000000000000000000000000081526004016118e791906126fd565b60405180910390fd5b6118fa8383611efb565b505050565b7f000000000000000000000000000000000000000000000000000000000000000073ffffffffffffffffffffffffffffffffffffffff163073ffffffffffffffffffffffffffffffffffffffff1614611984576040517fe07c8dba00000000000000000000000000000000000000000000000000000000815260040160405180910390fd5b565b60007ff0c57e16840df040f15088dc2f81fe391c3923bec73e23a9662efc9c229c6a0060001b905090565b6119b9611f6e565b6119ef576040517fd7e6bcf800000000000000000000000000000000000000000000000000000000815260040160405180910390fd5b565b6119f96119b1565b6000611a0361119d565b905082816003019081611a169190612ece565b5081816004019081611a289190612ece565b50505050565b6000611a3861119d565b9050600073ffffffffffffffffffffffffffffffffffffffff168473ffffffffffffffffffffffffffffffffffffffff1603611a8e5781816002016000828254611a829190612c7f565b92505081905550611b67565b60008160000160008673ffffffffffffffffffffffffffffffffffffffff1673ffffffffffffffffffffffffffffffffffffffff16815260200190815260200160002054905082811015611b1d578481846040517fe450d38c000000000000000000000000000000000000000000000000000000008152600401611b1493929190612cb3565b60405180910390fd5b8281038260000160008773ffffffffffffffffffffffffffffffffffffffff1673ffffffffffffffffffffffffffffffffffffffff16815260200190815260200160002081905550505b600073ffffffffffffffffffffffffffffffffffffffff168373ffffffffffffffffffffffffffffffffffffffff1603611bb257818160020160008282540392505081905550611c02565b818160000160008573ffffffffffffffffffffffffffffffffffffffff1673ffffffffffffffffffffffffffffffffffffffff168152602001908152602001600020600082825401925050819055505b8273ffffffffffffffffffffffffffffffffffffffff168473ffffffffffffffffffffffffffffffffffffffff167fddf252ad1be2c89b69c2b068fc378daa952ba7f163c4a11628f55a4df523b3ef84604051611c5f919061261d565b60405180910390a350505050565b6000611c7761119d565b9050600073ffffffffffffffffffffffffffffffffffffffff168573ffffffffffffffffffffffffffffffffffffffff1603611ceb5760006040517fe602df05000000000000000000000000000000000000000000000000000000008152600401611ce29190612935565b60405180910390fd5b600073ffffffffffffffffffffffffffffffffffffffff168473ffffffffffffffffffffffffffffffffffffffff1603611d5d5760006040517f94280d62000000000000000000000000000000000000000000000000000000008152600401611d549190612935565b60405180910390fd5b828160010160008773ffffffffffffffffffffffffffffffffffffffff1673ffffffffffffffffffffffffffffffffffffffff16815260200190815260200160002060008673ffffffffffffffffffffffffffffffffffffffff1673ffffffffffffffffffffffffffffffffffffffff168152602001908152602001600020819055508115611e4c578373ffffffffffffffffffffffffffffffffffffffff168573ffffffffffffffffffffffffffffffffffffffff167f8c5be1e5ebec7d5bd14f71427d1e84f3dd0314c0f7b2291e5b200ac8c7c3b92585604051611e43919061261d565b60405180910390a35b5050505050565b611e5d8282610dcd565b611ea05780826040517fe2517d3f000000000000000000000000000000000000000000000000000000008152600401611e97929190612fa0565b60405180910390fd5b5050565b6000611ed27f360894a13ba1a3210667c828492db98dca3e2076cc3735a920a3ca505d382bbc60001b611f8e565b60000160009054906101000a900473ffffffffffffffffffffffffffffffffffffffff16905090565b611f0482611f98565b8173ffffffffffffffffffffffffffffffffffffffff167fbc7cd75a20ee27fd9adebab32041f755214dbc6bffa90cc0225b39da2e5c2d3b60405160405180910390a2600081511115611f6157611f5b8282612065565b50611f6a565b611f696120e9565b5b5050565b6000611f786111c5565b60000160089054906101000a900460ff16905090565b6000819050919050565b60008173ffffffffffffffffffffffffffffffffffffffff163b03611ff457806040517f4c9c8ce3000000000000000000000000000000000000000000000000000000008152600401611feb9190612935565b60405180910390fd5b806120217f360894a13ba1a3210667c828492db98dca3e2076cc3735a920a3ca505d382bbc60001b611f8e565b60000160006101000a81548173ffffffffffffffffffffffffffffffffffffffff021916908373ffffffffffffffffffffffffffffffffffffffff16021790555050565b60606000808473ffffffffffffffffffffffffffffffffffffffff168460405161208f9190613010565b600060405180830381855af49150503d80600081146120ca576040519150601f19603f3d011682016040523d82523d6000602084013e6120cf565b606091505b50915091506120df858383612126565b9250505092915050565b6000341115612124576040517fb398979f00000000000000000000000000000000000000000000000000000000815260040160405180910390fd5b565b60608261213b57612136826121b5565b6121ad565b60008251148015612163575060008473ffffffffffffffffffffffffffffffffffffffff163b145b156121a557836040517f9996b31500000000000000000000000000000000000000000000000000000000815260040161219c9190612935565b60405180910390fd5b8190506121ae565b5b9392505050565b6000815111156121c757805160208201fd5b6040517fd6bda27500000000000000000000000000000000000000000000000000000000815260040160405180910390fd5b6000604051905090565b600080fd5b600080fd5b60007fffffffff0000000000000000000000000000000000000000000000000000000082169050919050565b6122428161220d565b811461224d57600080fd5b50565b60008135905061225f81612239565b92915050565b60006020828403121561227b5761227a612203565b5b600061228984828501612250565b91505092915050565b60008115159050919050565b6122a781612292565b82525050565b60006020820190506122c2600083018461229e565b92915050565b600081519050919050565b600082825260208201905092915050565b60005b838110156123025780820151818401526020810190506122e7565b60008484015250505050565b6000601f19601f8301169050919050565b600061232a826122c8565b61233481856122d3565b93506123448185602086016122e4565b61234d8161230e565b840191505092915050565b60006020820190508181036000830152612372818461231f565b905092915050565b600080fd5b600080fd5b7f4e487b7100000000000000000000000000000000000000000000000000000000600052604160045260246000fd5b6123bc8261230e565b810181811067ffffffffffffffff821117156123db576123da612384565b5b80604052505050565b60006123ee6121f9565b90506123fa82826123b3565b919050565b600067ffffffffffffffff82111561241a57612419612384565b5b6124238261230e565b9050602081019050919050565b82818337600083830152505050565b600061245261244d846123ff565b6123e4565b90508281526020810184848401111561246e5761246d61237f565b5b612479848285612430565b509392505050565b600082601f8301126124965761249561237a565b5b81356124a684826020860161243f565b91505092915050565b600073ffffffffffffffffffffffffffffffffffffffff82169050919050565b60006124da826124af565b9050919050565b6124ea816124cf565b81146124f557600080fd5b50565b600081359050612507816124e1565b92915050565b60008060006060848603121561252657612525612203565b5b600084013567ffffffffffffffff81111561254457612543612208565b5b61255086828701612481565b935050602084013567ffffffffffffffff81111561257157612570612208565b5b61257d86828701612481565b925050604061258e868287016124f8565b9150509250925092565b6000819050919050565b6125ab81612598565b81146125b657600080fd5b50565b6000813590506125c8816125a2565b92915050565b600080604083850312156125e5576125e4612203565b5b60006125f3858286016124f8565b9250506020612604858286016125b9565b9150509250929050565b61261781612598565b82525050565b6000602082019050612632600083018461260e565b92915050565b60008060006060848603121561265157612650612203565b5b600061265f868287016124f8565b9350506020612670868287016124f8565b9250506040612681868287016125b9565b9150509250925092565b6000819050919050565b61269e8161268b565b81146126a957600080fd5b50565b6000813590506126bb81612695565b92915050565b6000602082840312156126d7576126d6612203565b5b60006126e5848285016126ac565b91505092915050565b6126f78161268b565b82525050565b600060208201905061271260008301846126ee565b92915050565b6000806040838503121561272f5761272e612203565b5b600061273d858286016126ac565b925050602061274e858286016124f8565b9150509250929050565b600060ff82169050919050565b61276e81612758565b82525050565b60006020820190506127896000830184612765565b92915050565b6000602082840312156127a5576127a4612203565b5b60006127b3848285016125b9565b91505092915050565b600067ffffffffffffffff8211156127d7576127d6612384565b5b6127e08261230e565b9050602081019050919050565b60006128006127fb846127bc565b6123e4565b90508281526020810184848401111561281c5761281b61237f565b5b612827848285612430565b509392505050565b600082601f8301126128445761284361237a565b5b81356128548482602086016127ed565b91505092915050565b6000806040838503121561287457612873612203565b5b6000612882858286016124f8565b925050602083013567ffffffffffffffff8111156128a3576128a2612208565b5b6128af8582860161282f565b9150509250929050565b6000602082840312156128cf576128ce612203565b5b60006128dd848285016124f8565b91505092915050565b600080604083850312156128fd576128fc612203565b5b600061290b858286016124f8565b925050602061291c858286016124f8565b9150509250929050565b61292f816124cf565b82525050565b600060208201905061294a6000830184612926565b92915050565b7f4e487b7100000000000000000000000000000000000000000000000000000000600052602260045260246000fd5b6000600282049050600182168061299757607f821691505b6020821081036129aa576129a9612950565b5b50919050565b7f4e487b7100000000000000000000000000000000000000000000000000000000600052601160045260246000fd5b60008160011c9050919050565b6000808291508390505b6001851115612a3657808604811115612a1257612a116129b0565b5b6001851615612a215780820291505b8081029050612a2f856129df565b94506129f6565b94509492505050565b600082612a4f5760019050612b0b565b81612a5d5760009050612b0b565b8160018114612a735760028114612a7d57612aac565b6001915050612b0b565b60ff841115612a8f57612a8e6129b0565b5b8360020a915084821115612aa657612aa56129b0565b5b50612b0b565b5060208310610133831016604e8410600b8410161715612ae15782820a905083811115612adc57612adb6129b0565b5b612b0b565b612aee84848460016129ec565b92509050818404811115612b0557612b046129b0565b5b81810290505b9392505050565b6000612b1d82612598565b9150612b2883612758565b9250612b557fffffffffffffffffffffffffffffffffffffffffffffffffffffffffffffffff8484612a3f565b905092915050565b6000612b6882612598565b9150612b7383612598565b9250828202612b8181612598565b91508282048414831517612b9857612b976129b0565b5b5092915050565b6000819050919050565b600067ffffffffffffffff82169050919050565b6000819050919050565b6000612be2612bdd612bd884612b9f565b612bbd565b612ba9565b9050919050565b612bf281612bc7565b82525050565b6000602082019050612c0d6000830184612be9565b92915050565b7f496e73756666696369656e742062616c616e6365000000000000000000000000600082015250565b6000612c496014836122d3565b9150612c5482612c13565b602082019050919050565b60006020820190508181036000830152612c7881612c3c565b9050919050565b6000612c8a82612598565b9150612c9583612598565b9250828201905080821115612cad57612cac6129b0565b5b92915050565b6000606082019050612cc86000830186612926565b612cd5602083018561260e565b612ce2604083018461260e565b949350505050565b600081519050612cf981612695565b92915050565b600060208284031215612d1557612d14612203565b5b6000612d2384828501612cea565b91505092915050565b60008190508160005260206000209050919050565b60006020601f8301049050919050565b600082821b905092915050565b600060088302612d8e7fffffffffffffffffffffffffffffffffffffffffffffffffffffffffffffffff82612d51565b612d988683612d51565b95508019841693508086168417925050509392505050565b6000612dcb612dc6612dc184612598565b612bbd565b612598565b9050919050565b6000819050919050565b612de583612db0565b612df9612df182612dd2565b848454612d5e565b825550505050565b600090565b612e0e612e01565b612e19818484612ddc565b505050565b5b81811015612e3d57612e32600082612e06565b600181019050612e1f565b5050565b601f821115612e8257612e5381612d2c565b612e5c84612d41565b81016020851015612e6b578190505b612e7f612e7785612d41565b830182612e1e565b50505b505050565b600082821c905092915050565b6000612ea560001984600802612e87565b1980831691505092915050565b6000612ebe8383612e94565b9150826002028217905092915050565b612ed7826122c8565b67ffffffffffffffff811115612ef057612eef612384565b5b612efa825461297f565b612f05828285612e41565b600060209050601f831160018114612f385760008415612f26578287015190505b612f308582612eb2565b865550612f98565b601f198416612f4686612d2c565b60005b82811015612f6e57848901518255600182019150602085019450602081019050612f49565b86831015612f8b5784890151612f87601f891682612e94565b8355505b6001600288020188555050505b505050505050565b6000604082019050612fb56000830185612926565b612fc260208301846126ee565b9392505050565b600081519050919050565b600081905092915050565b6000612fea82612fc9565b612ff48185612fd4565b93506130048185602086016122e4565b80840191505092915050565b600061301c8284612fdf565b91508190509291505056fea26469706673582212207159ca1e87eda72d9d059e18d52626ff8483b9cac4481d432d10a12ae924a0b464736f6c634300081c0033",
  "linkReferences": {},
  "deployedLinkReferences": {}
}