{
  "_format": "hh-sol-artifact-1",
  "contractName": "TokenUpgradeable",
  "sourceName": "contracts/TokenUpgradeable.sol",
  "abi": [
    {
      "inputs": [],
      "name": "AccessControlBadConfirmation",
      "type": "error"
    },
    {
      "inputs": [
        {
          "internalType": "address",
          "name": "account",
          "type": "address"
        },
        {
          "internalType": "bytes32",
          "name": "neededRole",
          "type": "bytes32"
        }
      ],
      "name": "AccessControlUnauthorizedAccount",
      "type": "error"
    },
    {
      "inputs": [
        {
          "internalType": "address",
          "name": "target",
          "type": "address"
        }
      ],
      "name": "AddressEmptyCode",
      "type": "error"
    },
    {
      "inputs": [
        {
          "internalType": "address",
          "name": "implementation",
          "type": "address"
        }
      ],
      "name": "ERC1967InvalidImplementation",
      "type": "error"
    },
    {
      "inputs": [],
      "name": "ERC1967NonPayable",
      "type": "error"
    },
    {
      "inputs": [
        {
          "internalType": "address",
          "name": "spender",
          "type": "address"
        },
        {
          "internalType": "uint256",
          "name": "allowance",
          "type": "uint256"
        },
        {
          "internalType": "uint256",
          "name": "needed",
          "type": "uint256"
        }
      ],
      "name": "ERC20InsufficientAllowance",
      "type": "error"
    },
    {
      "inputs": [
        {
          "internalType": "address",
          "name": "sender",
          "type": "address"
        },
        {
          "internalType": "uint256",
          "name": "balance",
          "type": "uint256"
        },
        {
          "internalType": "uint256",
          "name": "needed",
          "type": "uint256"
        }
      ],
      "name": "ERC20InsufficientBalance",
      "type": "error"
    },
    {
      "inputs": [
        {
          "internalType": "address",
          "name": "approver",
          "type": "address"
        }
      ],
      "name": "ERC20InvalidApprover",
      "type": "error"
    },
    {
      "inputs": [
        {
          "internalType": "address",
          "name": "receiver",
          "type": "address"
        }
      ],
      "name": "ERC20InvalidReceiver",
      "type": "error"
    },
    {
      "inputs": [
        {
          "internalType": "address",
          "name": "sender",
          "type": "address"
        }
      ],
      "name": "ERC20InvalidSender",
      "type": "error"
    },
    {
      "inputs": [
        {
          "internalType": "address",
          "name": "spender",
          "type": "address"
        }
      ],
      "name": "ERC20InvalidSpender",
      "type": "error"
    },
    {
      "inputs": [],
      "name": "FailedCall",
      "type": "error"
    },
    {
      "inputs": [],
      "name": "InvalidInitialization",
      "type": "error"
    },
    {
      "inputs": [],
      "name": "NotInitializing",
      "type": "error"
    },
    {
      "inputs": [],
      "name": "UUPSUnauthorizedCallContext",
      "type": "error"
    },
    {
      "inputs": [
        {
          "internalType": "bytes32",
          "name": "slot",
          "type": "bytes32"
        }
      ],
      "name": "UUPSUnsupportedProxiableUUID",
      "type": "error"
    },
    {
      "anonymous": false,
      "inputs": [
        {
          "indexed": false,
          "internalType": "address",
          "name": "adminSet",
          "type": "address"
        }
      ],
      "name": "AdminSet",
      "type": "event"
    },
    {
      "anonymous": false,
      "inputs": [
        {
          "indexed": true,
          "internalType": "address",
          "name": "owner",
          "type": "address"
        },
        {
          "indexed": true,
          "internalType": "address",
          "name": "spender",
          "type": "address"
        },
        {
          "indexed": false,
          "internalType": "uint256",
          "name": "value",
          "type": "uint256"
        }
      ],
      "name": "Approval",
      "type": "event"
    },
    {
      "anonymous": false,
      "inputs": [
        {
          "indexed": false,
          "internalType": "uint64",
          "name": "version",
          "type": "uint64"
        }
      ],
      "name": "Initialized",
      "type": "event"
    },
    {
      "anonymous": false,
      "inputs": [
        {
          "indexed": true,
          "internalType": "address",
          "name": "user",
          "type": "address"
        },
        {
          "indexed": false,
          "internalType": "uint256",
          "name": "amount",
          "type": "uint256"
        }
      ],
      "name": "Redeemed",
      "type": "event"
    },
    {
      "anonymous": false,
      "inputs": [
        {
          "indexed": true,
          "internalType": "bytes32",
          "name": "role",
          "type": "bytes32"
        },
        {
          "indexed": true,
          "internalType": "bytes32",
          "name": "previousAdminRole",
          "type": "bytes32"
        },
        {
          "indexed": true,
          "internalType": "bytes32",
          "name": "newAdminRole",
          "type": "bytes32"
        }
      ],
      "name": "RoleAdminChanged",
      "type": "event"
    },
    {
      "anonymous": false,
      "inputs": [
        {
          "indexed": true,
          "internalType": "bytes32",
          "name": "role",
          "type": "bytes32"
        },
        {
          "indexed": true,
          "internalType": "address",
          "name": "account",
          "type": "address"
        },
        {
          "indexed": true,
          "internalType": "address",
          "name": "sender",
          "type": "address"
        }
      ],
      "name": "RoleGranted",
      "type": "event"
    },
    {
      "anonymous": false,
      "inputs": [
        {
          "indexed": true,
          "internalType": "bytes32",
          "name": "role",
          "type": "bytes32"
        },
        {
          "indexed": true,
          "internalType": "address",
          "name": "account",
          "type": "address"
        },
        {
          "indexed": true,
          "internalType": "address",
          "name": "sender",
          "type": "address"
        }
      ],
      "name": "RoleRevoked",
      "type": "event"
    },
    {
      "anonymous": false,
      "inputs": [
        {
          "indexed": true,
          "internalType": "address",
          "name": "from",
          "type": "address"
        },
        {
          "indexed": true,
          "internalType": "address",
          "name": "to",
          "type": "address"
        },
        {
          "indexed": false,
          "internalType": "uint256",
          "name": "value",
          "type": "uint256"
        }
      ],
      "name": "Transfer",
      "type": "event"
    },
    {
      "anonymous": false,
      "inputs": [
        {
          "indexed": true,
          "internalType": "address",
          "name": "implementation",
          "type": "address"
        }
      ],
      "name": "Upgraded",
      "type": "event"
    },
    {
      "inputs": [],
      "name": "DEFAULT_ADMIN_ROLE",
      "outputs": [
        {
          "internalType": "bytes32",
          "name": "",
          "type": "bytes32"
        }
      ],
      "stateMutability": "view",
      "type": "function"
    },
    {
      "inputs": [],
      "name": "MINTER_ROLE",
      "outputs": [
        {
          "internalType": "bytes32",
          "name": "",
          "type": "bytes32"
        }
      ],
      "stateMutability": "view",
      "type": "function"
    },
    {
      "inputs": [],
      "name": "UPGRADE_INTERFACE_VERSION",
      "outputs": [
        {
          "internalType": "string",
          "name": "",
          "type": "string"
        }
      ],
      "stateMutability": "view",
      "type": "function"
    },
    {
      "inputs": [],
      "name": "admin",
      "outputs": [
        {
          "internalType": "address",
          "name": "",
          "type": "address"
        }
      ],
      "stateMutability": "view",
      "type": "function"
    },
    {
      "inputs": [
        {
          "internalType": "address",
          "name": "owner",
          "type": "address"
        },
        {
          "internalType": "address",
          "name": "spender",
          "type": "address"
        }
      ],
      "name": "allowance",
      "outputs": [
        {
          "internalType": "uint256",
          "name": "",
          "type": "uint256"
        }
      ],
      "stateMutability": "view",
      "type": "function"
    },
    {
      "inputs": [
        {
          "internalType": "address",
          "name": "spender",
          "type": "address"
        },
        {
          "internalType": "uint256",
          "name": "value",
          "type": "uint256"
        }
      ],
      "name": "approve",
      "outputs": [
        {
          "internalType": "bool",
          "name": "",
          "type": "bool"
        }
      ],
      "stateMutability": "nonpayable",
      "type": "function"
    },
    {
      "inputs": [
        {
          "internalType": "address",
          "name": "account",
          "type": "address"
        }
      ],
      "name": "balanceOf",
      "outputs": [
        {
          "internalType": "uint256",
          "name": "",
          "type": "uint256"
        }
      ],
      "stateMutability": "view",
      "type": "function"
    },
    {
      "inputs": [
        {
          "internalType": "uint256",
          "name": "amount",
          "type": "uint256"
        }
      ],
      "name": "burn",
      "outputs": [],
      "stateMutability": "nonpayable",
      "type": "function"
    },
    {
      "inputs": [],
      "name": "decimals",
      "outputs": [
        {
          "internalType": "uint8",
          "name": "",
          "type": "uint8"
        }
      ],
      "stateMutability": "view",
      "type": "function"
    },
    {
      "inputs": [
        {
          "internalType": "bytes32",
          "name": "role",
          "type": "bytes32"
        }
      ],
      "name": "getRoleAdmin",
      "outputs": [
        {
          "internalType": "bytes32",
          "name": "",
          "type": "bytes32"
        }
      ],
      "stateMutability": "view",
      "type": "function"
    },
    {
      "inputs": [
        {
          "internalType": "bytes32",
          "name": "role",
          "type": "bytes32"
        },
        {
          "internalType": "address",
          "name": "account",
          "type": "address"
        }
      ],
      "name": "grantRole",
      "outputs": [],
      "stateMutability": "nonpayable",
      "type": "function"
    },
    {
      "inputs": [
        {
          "internalType": "bytes32",
          "name": "role",
          "type": "bytes32"
        },
        {
          "internalType": "address",
          "name": "account",
          "type": "address"
        }
      ],
      "name": "hasRole",
      "outputs": [
        {
          "internalType": "bool",
          "name": "",
          "type": "bool"
        }
      ],
      "stateMutability": "view",
      "type": "function"
    },
    {
      "inputs": [
        {
          "internalType": "string",
          "name": "name",
          "type": "string"
        },
        {
          "internalType": "string",
          "name": "symbol",
          "type": "string"
        },
        {
          "internalType": "address",
          "name": "_admin",
          "type": "address"
        }
      ],
      "name": "initialize",
      "outputs": [],
      "stateMutability": "nonpayable",
      "type": "function"
    },
    {
      "inputs": [
        {
          "internalType": "address",
          "name": "to",
          "type": "address"
        },
        {
          "internalType": "uint256",
          "name": "amount",
          "type": "uint256"
        }
      ],
      "name": "mint",
      "outputs": [],
      "stateMutability": "nonpayable",
      "type": "function"
    },
    {
      "inputs": [],
      "name": "name",
      "outputs": [
        {
          "internalType": "string",
          "name": "",
          "type": "string"
        }
      ],
      "stateMutability": "view",
      "type": "function"
    },
    {
      "inputs": [],
      "name": "proxiableUUID",
      "outputs": [
        {
          "internalType": "bytes32",
          "name": "",
          "type": "bytes32"
        }
      ],
      "stateMutability": "view",
      "type": "function"
    },
    {
      "inputs": [
        {
          "internalType": "uint256",
          "name": "amount",
          "type": "uint256"
        }
      ],
      "name": "redeem",
      "outputs": [],
      "stateMutability": "nonpayable",
      "type": "function"
    },
    {
      "inputs": [],
      "name": "redeemCounter",
      "outputs": [
        {
          "internalType": "uint256",
          "name": "",
          "type": "uint256"
        }
      ],
      "stateMutability": "view",
      "type": "function"
    },
    {
      "inputs": [
        {
          "internalType": "bytes32",
          "name": "role",
          "type": "bytes32"
        },
        {
          "internalType": "address",
          "name": "callerConfirmation",
          "type": "address"
        }
      ],
      "name": "renounceRole",
      "outputs": [],
      "stateMutability": "nonpayable",
      "type": "function"
    },
    {
      "inputs": [
        {
          "internalType": "bytes32",
          "name": "role",
          "type": "bytes32"
        },
        {
          "internalType": "address",
          "name": "account",
          "type": "address"
        }
      ],
      "name": "revokeRole",
      "outputs": [],
      "stateMutability": "nonpayable",
      "type": "function"
    },
    {
      "inputs": [
        {
          "internalType": "bytes4",
          "name": "interfaceId",
          "type": "bytes4"
        }
      ],
      "name": "supportsInterface",
      "outputs": [
        {
          "internalType": "bool",
          "name": "",
          "type": "bool"
        }
      ],
      "stateMutability": "view",
      "type": "function"
    },
    {
      "inputs": [],
      "name": "symbol",
      "outputs": [
        {
          "internalType": "string",
          "name": "",
          "type": "string"
        }
      ],
      "stateMutability": "view",
      "type": "function"
    },
    {
      "inputs": [],
      "name": "totalSupply",
      "outputs": [
        {
          "internalType": "uint256",
          "name": "",
          "type": "uint256"
        }
      ],
      "stateMutability": "view",
      "type": "function"
    },
    {
      "inputs": [
        {
          "internalType": "address",
          "name": "to",
          "type": "address"
        },
        {
          "internalType": "uint256",
          "name": "value",
          "type": "uint256"
        }
      ],
      "name": "transfer",
      "outputs": [
        {
          "internalType": "bool",
          "name": "",
          "type": "bool"
        }
      ],
      "stateMutability": "nonpayable",
      "type": "function"
    },
    {
      "inputs": [
        {
          "internalType": "address",
          "name": "from",
          "type": "address"
        },
        {
          "internalType": "address",
          "name": "to",
          "type": "address"
        },
        {
          "internalType": "uint256",
          "name": "value",
          "type": "uint256"
        }
      ],
      "name": "transferFrom",
      "outputs": [
        {
          "internalType": "bool",
          "name": "",
          "type": "bool"
        }
      ],
      "stateMutability": "nonpayable",
      "type": "function"
    },
    {
      "inputs": [
        {
          "internalType": "address",
          "name": "newImplementation",
          "type": "address"
        },
        {
          "internalType": "bytes",
          "name": "data",
          "type": "bytes"
        }
      ],
      "name": "upgradeToAndCall",
      "outputs": [],
      "stateMutability": "payable",
      "type": "function"
    }
  ],
  "bytecode": "0x60a06040523073ffffffffffffffffffffffffffffffffffffffff1660809073ffffffffffffffffffffffffffffffffffffffff16815250348015604257600080fd5b50608051612fda61006c60003960008181611668015281816116bd015261187e0152612fda6000f3fe6080604052600436106101815760003560e01c806352d1902d116100d1578063a9059cbb1161008a578063d547741f11610064578063d547741f1461059d578063db006a75146105c6578063dd62ed3e146105ef578063f851a4401461062c57610181565b8063a9059cbb1461050a578063ad3cb1cc14610547578063d53913931461057257610181565b806352d1902d146103e457806370a082311461040f57806391d148541461044c57806395d89b4114610489578063a217fddf146104b4578063a7ce4565146104df57610181565b8063248a9ca31161013e57806336568abe1161011857806336568abe1461034d57806340c10f191461037657806342966c681461039f5780634f1ef286146103c857610181565b8063248a9ca3146102bc5780632f2ff15d146102f9578063313ce5671461032257610181565b806301ffc9a71461018657806306fdde03146101c3578063077f224a146101ee578063095ea7b31461021757806318160ddd1461025457806323b872dd1461027f575b600080fd5b34801561019257600080fd5b506101ad60048036038101906101a891906121e2565b610657565b6040516101ba919061222a565b60405180910390f35b3480156101cf57600080fd5b506101d86106d1565b6040516101e591906122d5565b60405180910390f35b3480156101fa57600080fd5b506102156004803603810190610210919061248a565b610772565b005b34801561022357600080fd5b5061023e6004803603810190610239919061254b565b610b1d565b60405161024b919061222a565b60405180910390f35b34801561026057600080fd5b50610269610b40565b604051610276919061259a565b60405180910390f35b34801561028b57600080fd5b506102a660048036038101906102a191906125b5565b610b58565b6040516102b3919061222a565b60405180910390f35b3480156102c857600080fd5b506102e360048036038101906102de919061263e565b610b87565b6040516102f0919061267a565b60405180910390f35b34801561030557600080fd5b50610320600480360381019061031b9190612695565b610bb5565b005b34801561032e57600080fd5b50610337610bd7565b60405161034491906126f1565b60405180910390f35b34801561035957600080fd5b50610374600480360381019061036f9190612695565b610be0565b005b34801561038257600080fd5b5061039d6004803603810190610398919061254b565b610c5b565b005b3480156103ab57600080fd5b506103c660048036038101906103c1919061270c565b610c94565b005b6103e260048036038101906103dd91906127da565b610ca1565b005b3480156103f057600080fd5b506103f9610cc0565b604051610406919061267a565b60405180910390f35b34801561041b57600080fd5b5061043660048036038101906104319190612836565b610cf3565b604051610443919061259a565b60405180910390f35b34801561045857600080fd5b50610473600480360381019061046e9190612695565b610d4a565b604051610480919061222a565b60405180910390f35b34801561049557600080fd5b5061049e610dc3565b6040516104ab91906122d5565b60405180910390f35b3480156104c057600080fd5b506104c9610e64565b6040516104d6919061267a565b60405180910390f35b3480156104eb57600080fd5b506104f4610e6b565b604051610501919061259a565b60405180910390f35b34801561051657600080fd5b50610531600480360381019061052c919061254b565b610e71565b60405161053e919061222a565b60405180910390f35b34801561055357600080fd5b5061055c610e94565b60405161056991906122d5565b60405180910390f35b34801561057e57600080fd5b50610587610ecd565b604051610594919061267a565b60405180910390f35b3480156105a957600080fd5b506105c460048036038101906105bf9190612695565b610ef1565b005b3480156105d257600080fd5b506105ed60048036038101906105e8919061270c565b610f13565b005b3480156105fb57600080fd5b5061061660048036038101906106119190612863565b610ff5565b604051610623919061259a565b60405180910390f35b34801561063857600080fd5b5061064161108a565b60405161064e91906128b2565b60405180910390f35b60007f7965db0b000000000000000000000000000000000000000000000000000000007bffffffffffffffffffffffffffffffffffffffffffffffffffffffff1916827bffffffffffffffffffffffffffffffffffffffffffffffffffffffff191614806106ca57506106c9826110b0565b5b9050919050565b606060006106dd61111a565b90508060030180546106ee906128fc565b80601f016020809104026020016040519081016040528092919081815260200182805461071a906128fc565b80156107675780601f1061073c57610100808354040283529160200191610767565b820191906000526020600020905b81548152906001019060200180831161074a57829003601f168201915b505050505091505090565b600061077c611142565b905060008160000160089054906101000a900460ff1615905060008260000160009054906101000a900467ffffffffffffffff1690506000808267ffffffffffffffff161480156107ca5750825b9050600060018367ffffffffffffffff161480156107ff575060003073ffffffffffffffffffffffffffffffffffffffff163b145b90508115801561080d575080155b15610844576040517ff92ee8a900000000000000000000000000000000000000000000000000000000815260040160405180910390fd5b60018560000160006101000a81548167ffffffffffffffff021916908367ffffffffffffffff16021790555083156108945760018560000160086101000a81548160ff0219169083151502179055505b61089e8888611156565b6108a661116c565b6108ae611176565b85600160006101000a81548173ffffffffffffffffffffffffffffffffffffffff021916908373ffffffffffffffffffffffffffffffffffffffff16021790555061091e6000801b600160009054906101000a900473ffffffffffffffffffffffffffffffffffffffff16611180565b5061096b7f9f2df0fed2c77648de5860a4cc508cd0818c85b8b8a1ab4ceeef8d981c8956a6600160009054906101000a900473ffffffffffffffffffffffffffffffffffffffff16611180565b506109b7600160009054906101000a900473ffffffffffffffffffffffffffffffffffffffff1661099a610bd7565b600a6109a69190612a8f565b60646109b29190612ada565b611281565b600160009054906101000a900473ffffffffffffffffffffffffffffffffffffffff1673ffffffffffffffffffffffffffffffffffffffff16600073ffffffffffffffffffffffffffffffffffffffff167fddf252ad1be2c89b69c2b068fc378daa952ba7f163c4a11628f55a4df523b3ef610a31610bd7565b600a610a3d9190612a8f565b6064610a499190612ada565b604051610a56919061259a565b60405180910390a37f8fe72c3e0020beb3234e76ae6676fa576fbfcae600af1c4fea44784cf0db329c600160009054906101000a900473ffffffffffffffffffffffffffffffffffffffff16604051610aaf91906128b2565b60405180910390a18315610b135760008560000160086101000a81548160ff0219169083151502179055507fc7f505b2f371ae2175ee4913f4499e1f2633a7b5936321eed1cdaeb6115181d26001604051610b0a9190612b75565b60405180910390a15b5050505050505050565b600080610b28611303565b9050610b3581858561130b565b600191505092915050565b600080610b4b61111a565b9050806002015491505090565b600080610b63611303565b9050610b7085828561131d565b610b7b8585856113b2565b60019150509392505050565b600080610b926114a6565b905080600001600084815260200190815260200160002060010154915050919050565b610bbe82610b87565b610bc7816114ce565b610bd18383611180565b50505050565b60006012905090565b610be8611303565b73ffffffffffffffffffffffffffffffffffffffff168173ffffffffffffffffffffffffffffffffffffffff1614610c4c576040517f6697b23200000000000000000000000000000000000000000000000000000000815260040160405180910390fd5b610c5682826114e2565b505050565b7f9f2df0fed2c77648de5860a4cc508cd0818c85b8b8a1ab4ceeef8d981c8956a6610c85816114ce565b610c8f8383611281565b505050565b610c9e33826115e4565b50565b610ca9611666565b610cb28261174c565b610cbc828261175d565b5050565b6000610cca61187c565b7f360894a13ba1a3210667c828492db98dca3e2076cc3735a920a3ca505d382bbc60001b905090565b600080610cfe61111a565b90508060000160008473ffffffffffffffffffffffffffffffffffffffff1673ffffffffffffffffffffffffffffffffffffffff16815260200190815260200160002054915050919050565b600080610d556114a6565b905080600001600085815260200190815260200160002060000160008473ffffffffffffffffffffffffffffffffffffffff1673ffffffffffffffffffffffffffffffffffffffff16815260200190815260200160002060009054906101000a900460ff1691505092915050565b60606000610dcf61111a565b9050806004018054610de0906128fc565b80601f0160208091040260200160405190810160405280929190818152602001828054610e0c906128fc565b8015610e595780601f10610e2e57610100808354040283529160200191610e59565b820191906000526020600020905b815481529060010190602001808311610e3c57829003601f168201915b505050505091505090565b6000801b81565b60005481565b600080610e7c611303565b9050610e898185856113b2565b600191505092915050565b6040518060400160405280600581526020017f352e302e3000000000000000000000000000000000000000000000000000000081525081565b7f9f2df0fed2c77648de5860a4cc508cd0818c85b8b8a1ab4ceeef8d981c8956a681565b610efa82610b87565b610f03816114ce565b610f0d83836114e2565b50505050565b80610f1d33610cf3565b1015610f5e576040517f08c379a0000000000000000000000000000000000000000000000000000000008152600401610f5590612bdc565b60405180910390fd5b610f8b33600160009054906101000a900473ffffffffffffffffffffffffffffffffffffffff16836113b2565b6001600080828254610f9d9190612bfc565b925050819055503373ffffffffffffffffffffffffffffffffffffffff167f4896181ff8f4543cc00db9fe9b6fb7e6f032b7eb772c72ab1ec1b4d2e03b936982604051610fea919061259a565b60405180910390a250565b60008061100061111a565b90508060010160008573ffffffffffffffffffffffffffffffffffffffff1673ffffffffffffffffffffffffffffffffffffffff16815260200190815260200160002060008473ffffffffffffffffffffffffffffffffffffffff1673ffffffffffffffffffffffffffffffffffffffff1681526020019081526020016000205491505092915050565b600160009054906101000a900473ffffffffffffffffffffffffffffffffffffffff1681565b60007f01ffc9a7000000000000000000000000000000000000000000000000000000007bffffffffffffffffffffffffffffffffffffffffffffffffffffffff1916827bffffffffffffffffffffffffffffffffffffffffffffffffffffffff1916149050919050565b60007f52c63247e1f47db19d5ce0460030c497f067ca4cebf71ba98eeadabe20bace00905090565b60008061114d611903565b90508091505090565b61115e61192e565b611168828261196e565b5050565b61117461192e565b565b61117e61192e565b565b60008061118b6114a6565b90506111978484610d4a565b61127557600181600001600086815260200190815260200160002060000160008573ffffffffffffffffffffffffffffffffffffffff1673ffffffffffffffffffffffffffffffffffffffff16815260200190815260200160002060006101000a81548160ff021916908315150217905550611211611303565b73ffffffffffffffffffffffffffffffffffffffff168373ffffffffffffffffffffffffffffffffffffffff16857f2f8788117e7eff1d82e926ec794901d17c78024a50270940304540a733656f0d60405160405180910390a4600191505061127b565b60009150505b92915050565b600073ffffffffffffffffffffffffffffffffffffffff168273ffffffffffffffffffffffffffffffffffffffff16036112f35760006040517fec442f050000000000000000000000000000000000000000000000000000000081526004016112ea91906128b2565b60405180910390fd5b6112ff600083836119ab565b5050565b600033905090565b6113188383836001611bea565b505050565b60006113298484610ff5565b90507fffffffffffffffffffffffffffffffffffffffffffffffffffffffffffffffff8110156113ac578181101561139c578281836040517ffb8f41b200000000000000000000000000000000000000000000000000000000815260040161139393929190612c30565b60405180910390fd5b6113ab84848484036000611bea565b5b50505050565b600073ffffffffffffffffffffffffffffffffffffffff168373ffffffffffffffffffffffffffffffffffffffff16036114245760006040517f96c6fd1e00000000000000000000000000000000000000000000000000000000815260040161141b91906128b2565b60405180910390fd5b600073ffffffffffffffffffffffffffffffffffffffff168273ffffffffffffffffffffffffffffffffffffffff16036114965760006040517fec442f0500000000000000000000000000000000000000000000000000000000815260040161148d91906128b2565b60405180910390fd5b6114a18383836119ab565b505050565b60007f02dd7bc7dec4dceedda775e58dd541e08a116c6c53815c0bd028192f7b626800905090565b6114df816114da611303565b611dd0565b50565b6000806114ed6114a6565b90506114f98484610d4a565b156115d857600081600001600086815260200190815260200160002060000160008573ffffffffffffffffffffffffffffffffffffffff1673ffffffffffffffffffffffffffffffffffffffff16815260200190815260200160002060006101000a81548160ff021916908315150217905550611574611303565b73ffffffffffffffffffffffffffffffffffffffff168373ffffffffffffffffffffffffffffffffffffffff16857ff6391f5c32d9c69d2a47ea670b442974b53935d1edc7fd64eb21e047a839171b60405160405180910390a460019150506115de565b60009150505b92915050565b600073ffffffffffffffffffffffffffffffffffffffff168273ffffffffffffffffffffffffffffffffffffffff16036116565760006040517f96c6fd1e00000000000000000000000000000000000000000000000000000000815260040161164d91906128b2565b60405180910390fd5b611662826000836119ab565b5050565b7f000000000000000000000000000000000000000000000000000000000000000073ffffffffffffffffffffffffffffffffffffffff163073ffffffffffffffffffffffffffffffffffffffff16148061171357507f000000000000000000000000000000000000000000000000000000000000000073ffffffffffffffffffffffffffffffffffffffff166116fa611e21565b73ffffffffffffffffffffffffffffffffffffffff1614155b1561174a576040517fe07c8dba00000000000000000000000000000000000000000000000000000000815260040160405180910390fd5b565b6000801b611759816114ce565b5050565b8173ffffffffffffffffffffffffffffffffffffffff166352d1902d6040518163ffffffff1660e01b8152600401602060405180830381865afa9250505080156117c557506040513d601f19601f820116820180604052508101906117c29190612c7c565b60015b61180657816040517f4c9c8ce30000000000000000000000000000000000000000000000000000000081526004016117fd91906128b2565b60405180910390fd5b7f360894a13ba1a3210667c828492db98dca3e2076cc3735a920a3ca505d382bbc60001b811461186d57806040517faa1d49a4000000000000000000000000000000000000000000000000000000008152600401611864919061267a565b60405180910390fd5b6118778383611e78565b505050565b7f000000000000000000000000000000000000000000000000000000000000000073ffffffffffffffffffffffffffffffffffffffff163073ffffffffffffffffffffffffffffffffffffffff1614611901576040517fe07c8dba00000000000000000000000000000000000000000000000000000000815260040160405180910390fd5b565b60007ff0c57e16840df040f15088dc2f81fe391c3923bec73e23a9662efc9c229c6a0060001b905090565b611936611eeb565b61196c576040517fd7e6bcf800000000000000000000000000000000000000000000000000000000815260040160405180910390fd5b565b61197661192e565b600061198061111a565b9050828160030190816119939190612e4b565b50818160040190816119a59190612e4b565b50505050565b60006119b561111a565b9050600073ffffffffffffffffffffffffffffffffffffffff168473ffffffffffffffffffffffffffffffffffffffff1603611a0b57818160020160008282546119ff9190612bfc565b92505081905550611ae4565b60008160000160008673ffffffffffffffffffffffffffffffffffffffff1673ffffffffffffffffffffffffffffffffffffffff16815260200190815260200160002054905082811015611a9a578481846040517fe450d38c000000000000000000000000000000000000000000000000000000008152600401611a9193929190612c30565b60405180910390fd5b8281038260000160008773ffffffffffffffffffffffffffffffffffffffff1673ffffffffffffffffffffffffffffffffffffffff16815260200190815260200160002081905550505b600073ffffffffffffffffffffffffffffffffffffffff168373ffffffffffffffffffffffffffffffffffffffff1603611b2f57818160020160008282540392505081905550611b7f565b818160000160008573ffffffffffffffffffffffffffffffffffffffff1673ffffffffffffffffffffffffffffffffffffffff168152602001908152602001600020600082825401925050819055505b8273ffffffffffffffffffffffffffffffffffffffff168473ffffffffffffffffffffffffffffffffffffffff167fddf252ad1be2c89b69c2b068fc378daa952ba7f163c4a11628f55a4df523b3ef84604051611bdc919061259a565b60405180910390a350505050565b6000611bf461111a565b9050600073ffffffffffffffffffffffffffffffffffffffff168573ffffffffffffffffffffffffffffffffffffffff1603611c685760006040517fe602df05000000000000000000000000000000000000000000000000000000008152600401611c5f91906128b2565b60405180910390fd5b600073ffffffffffffffffffffffffffffffffffffffff168473ffffffffffffffffffffffffffffffffffffffff1603611cda5760006040517f94280d62000000000000000000000000000000000000000000000000000000008152600401611cd191906128b2565b60405180910390fd5b828160010160008773ffffffffffffffffffffffffffffffffffffffff1673ffffffffffffffffffffffffffffffffffffffff16815260200190815260200160002060008673ffffffffffffffffffffffffffffffffffffffff1673ffffffffffffffffffffffffffffffffffffffff168152602001908152602001600020819055508115611dc9578373ffffffffffffffffffffffffffffffffffffffff168573ffffffffffffffffffffffffffffffffffffffff167f8c5be1e5ebec7d5bd14f71427d1e84f3dd0314c0f7b2291e5b200ac8c7c3b92585604051611dc0919061259a565b60405180910390a35b5050505050565b611dda8282610d4a565b611e1d5780826040517fe2517d3f000000000000000000000000000000000000000000000000000000008152600401611e14929190612f1d565b60405180910390fd5b5050565b6000611e4f7f360894a13ba1a3210667c828492db98dca3e2076cc3735a920a3ca505d382bbc60001b611f0b565b60000160009054906101000a900473ffffffffffffffffffffffffffffffffffffffff16905090565b611e8182611f15565b8173ffffffffffffffffffffffffffffffffffffffff167fbc7cd75a20ee27fd9adebab32041f755214dbc6bffa90cc0225b39da2e5c2d3b60405160405180910390a2600081511115611ede57611ed88282611fe2565b50611ee7565b611ee6612066565b5b5050565b6000611ef5611142565b60000160089054906101000a900460ff16905090565b6000819050919050565b60008173ffffffffffffffffffffffffffffffffffffffff163b03611f7157806040517f4c9c8ce3000000000000000000000000000000000000000000000000000000008152600401611f6891906128b2565b60405180910390fd5b80611f9e7f360894a13ba1a3210667c828492db98dca3e2076cc3735a920a3ca505d382bbc60001b611f0b565b60000160006101000a81548173ffffffffffffffffffffffffffffffffffffffff021916908373ffffffffffffffffffffffffffffffffffffffff16021790555050565b60606000808473ffffffffffffffffffffffffffffffffffffffff168460405161200c9190612f8d565b600060405180830381855af49150503d8060008114612047576040519150601f19603f3d011682016040523d82523d6000602084013e61204c565b606091505b509150915061205c8583836120a3565b9250505092915050565b60003411156120a1576040517fb398979f00000000000000000000000000000000000000000000000000000000815260040160405180910390fd5b565b6060826120b8576120b382612132565b61212a565b600082511480156120e0575060008473ffffffffffffffffffffffffffffffffffffffff163b145b1561212257836040517f9996b31500000000000000000000000000000000000000000000000000000000815260040161211991906128b2565b60405180910390fd5b81905061212b565b5b9392505050565b60008151111561214457805160208201fd5b6040517fd6bda27500000000000000000000000000000000000000000000000000000000815260040160405180910390fd5b6000604051905090565b600080fd5b600080fd5b60007fffffffff0000000000000000000000000000000000000000000000000000000082169050919050565b6121bf8161218a565b81146121ca57600080fd5b50565b6000813590506121dc816121b6565b92915050565b6000602082840312156121f8576121f7612180565b5b6000612206848285016121cd565b91505092915050565b60008115159050919050565b6122248161220f565b82525050565b600060208201905061223f600083018461221b565b92915050565b600081519050919050565b600082825260208201905092915050565b60005b8381101561227f578082015181840152602081019050612264565b60008484015250505050565b6000601f19601f8301169050919050565b60006122a782612245565b6122b18185612250565b93506122c1818560208601612261565b6122ca8161228b565b840191505092915050565b600060208201905081810360008301526122ef818461229c565b905092915050565b600080fd5b600080fd5b7f4e487b7100000000000000000000000000000000000000000000000000000000600052604160045260246000fd5b6123398261228b565b810181811067ffffffffffffffff8211171561235857612357612301565b5b80604052505050565b600061236b612176565b90506123778282612330565b919050565b600067ffffffffffffffff82111561239757612396612301565b5b6123a08261228b565b9050602081019050919050565b82818337600083830152505050565b60006123cf6123ca8461237c565b612361565b9050828152602081018484840111156123eb576123ea6122fc565b5b6123f68482856123ad565b509392505050565b600082601f830112612413576124126122f7565b5b81356124238482602086016123bc565b91505092915050565b600073ffffffffffffffffffffffffffffffffffffffff82169050919050565b60006124578261242c565b9050919050565b6124678161244c565b811461247257600080fd5b50565b6000813590506124848161245e565b92915050565b6000806000606084860312156124a3576124a2612180565b5b600084013567ffffffffffffffff8111156124c1576124c0612185565b5b6124cd868287016123fe565b935050602084013567ffffffffffffffff8111156124ee576124ed612185565b5b6124fa868287016123fe565b925050604061250b86828701612475565b9150509250925092565b6000819050919050565b61252881612515565b811461253357600080fd5b50565b6000813590506125458161251f565b92915050565b6000806040838503121561256257612561612180565b5b600061257085828601612475565b925050602061258185828601612536565b9150509250929050565b61259481612515565b82525050565b60006020820190506125af600083018461258b565b92915050565b6000806000606084860312156125ce576125cd612180565b5b60006125dc86828701612475565b93505060206125ed86828701612475565b92505060406125fe86828701612536565b9150509250925092565b6000819050919050565b61261b81612608565b811461262657600080fd5b50565b60008135905061263881612612565b92915050565b60006020828403121561265457612653612180565b5b600061266284828501612629565b91505092915050565b61267481612608565b82525050565b600060208201905061268f600083018461266b565b92915050565b600080604083850312156126ac576126ab612180565b5b60006126ba85828601612629565b92505060206126cb85828601612475565b9150509250929050565b600060ff82169050919050565b6126eb816126d5565b82525050565b600060208201905061270660008301846126e2565b92915050565b60006020828403121561272257612721612180565b5b600061273084828501612536565b91505092915050565b600067ffffffffffffffff82111561275457612753612301565b5b61275d8261228b565b9050602081019050919050565b600061277d61277884612739565b612361565b905082815260208101848484011115612799576127986122fc565b5b6127a48482856123ad565b509392505050565b600082601f8301126127c1576127c06122f7565b5b81356127d184826020860161276a565b91505092915050565b600080604083850312156127f1576127f0612180565b5b60006127ff85828601612475565b925050602083013567ffffffffffffffff8111156128205761281f612185565b5b61282c858286016127ac565b9150509250929050565b60006020828403121561284c5761284b612180565b5b600061285a84828501612475565b91505092915050565b6000806040838503121561287a57612879612180565b5b600061288885828601612475565b925050602061289985828601612475565b9150509250929050565b6128ac8161244c565b82525050565b60006020820190506128c760008301846128a3565b92915050565b7f4e487b7100000000000000000000000000000000000000000000000000000000600052602260045260246000fd5b6000600282049050600182168061291457607f821691505b602082108103612927576129266128cd565b5b50919050565b7f4e487b7100000000000000000000000000000000000000000000000000000000600052601160045260246000fd5b60008160011c9050919050565b6000808291508390505b60018511156129b35780860481111561298f5761298e61292d565b5b600185161561299e5780820291505b80810290506129ac8561295c565b9450612973565b94509492505050565b6000826129cc5760019050612a88565b816129da5760009050612a88565b81600181146129f057600281146129fa57612a29565b6001915050612a88565b60ff841115612a0c57612a0b61292d565b5b8360020a915084821115612a2357612a2261292d565b5b50612a88565b5060208310610133831016604e8410600b8410161715612a5e5782820a905083811115612a5957612a5861292d565b5b612a88565b612a6b8484846001612969565b92509050818404811115612a8257612a8161292d565b5b81810290505b9392505050565b6000612a9a82612515565b9150612aa5836126d5565b9250612ad27fffffffffffffffffffffffffffffffffffffffffffffffffffffffffffffffff84846129bc565b905092915050565b6000612ae582612515565b9150612af083612515565b9250828202612afe81612515565b91508282048414831517612b1557612b1461292d565b5b5092915050565b6000819050919050565b600067ffffffffffffffff82169050919050565b6000819050919050565b6000612b5f612b5a612b5584612b1c565b612b3a565b612b26565b9050919050565b612b6f81612b44565b82525050565b6000602082019050612b8a6000830184612b66565b92915050565b7f496e73756666696369656e742062616c616e6365000000000000000000000000600082015250565b6000612bc6601483612250565b9150612bd182612b90565b602082019050919050565b60006020820190508181036000830152612bf581612bb9565b9050919050565b6000612c0782612515565b9150612c1283612515565b9250828201905080821115612c2a57612c2961292d565b5b92915050565b6000606082019050612c4560008301866128a3565b612c52602083018561258b565b612c5f604083018461258b565b949350505050565b600081519050612c7681612612565b92915050565b600060208284031215612c9257612c91612180565b5b6000612ca084828501612c67565b91505092915050565b60008190508160005260206000209050919050565b60006020601f8301049050919050565b600082821b905092915050565b600060088302612d0b7fffffffffffffffffffffffffffffffffffffffffffffffffffffffffffffffff82612cce565b612d158683612cce565b95508019841693508086168417925050509392505050565b6000612d48612d43612d3e84612515565b612b3a565b612515565b9050919050565b6000819050919050565b612d6283612d2d565b612d76612d6e82612d4f565b848454612cdb565b825550505050565b600090565b612d8b612d7e565b612d96818484612d59565b505050565b5b81811015612dba57612daf600082612d83565b600181019050612d9c565b5050565b601f821115612dff57612dd081612ca9565b612dd984612cbe565b81016020851015612de8578190505b612dfc612df485612cbe565b830182612d9b565b50505b505050565b600082821c905092915050565b6000612e2260001984600802612e04565b1980831691505092915050565b6000612e3b8383612e11565b9150826002028217905092915050565b612e5482612245565b67ffffffffffffffff811115612e6d57612e6c612301565b5b612e7782546128fc565b612e82828285612dbe565b600060209050601f831160018114612eb55760008415612ea3578287015190505b612ead8582612e2f565b865550612f15565b601f198416612ec386612ca9565b60005b82811015612eeb57848901518255600182019150602085019450602081019050612ec6565b86831015612f085784890151612f04601f891682612e11565b8355505b6001600288020188555050505b505050505050565b6000604082019050612f3260008301856128a3565b612f3f602083018461266b565b9392505050565b600081519050919050565b600081905092915050565b6000612f6782612f46565b612f718185612f51565b9350612f81818560208601612261565b80840191505092915050565b6000612f998284612f5c565b91508190509291505056fea2646970667358221220530d4cb6e84d8d73f6363b1b248a66ac8f64b4025b7c5848d04008e2f69a953a64736f6c634300081c0033",
  "linkReferences": {},
  "deployedLinkReferences": {}
}